{
  "_format": "hh3-artifact-1",
  "contractName": "LPToken",
  "sourceName": "contracts/LPToken.sol",
  "abi": [
    {
      "inputs": [],
      "stateMutability": "nonpayable",
      "type": "constructor"
    },
    {
      "inputs": [
        {
          "internalType": "address",
          "name": "spender",
          "type": "address"
        },
        {
          "internalType": "uint256",
          "name": "allowance",
          "type": "uint256"
        },
        {
          "internalType": "uint256",
          "name": "needed",
          "type": "uint256"
        }
      ],
      "name": "ERC20InsufficientAllowance",
      "type": "error"
    },
    {
      "inputs": [
        {
          "internalType": "address",
          "name": "sender",
          "type": "address"
        },
        {
          "internalType": "uint256",
          "name": "balance",
          "type": "uint256"
        },
        {
          "internalType": "uint256",
          "name": "needed",
          "type": "uint256"
        }
      ],
      "name": "ERC20InsufficientBalance",
      "type": "error"
    },
    {
      "inputs": [
        {
          "internalType": "address",
          "name": "approver",
          "type": "address"
        }
      ],
      "name": "ERC20InvalidApprover",
      "type": "error"
    },
    {
      "inputs": [
        {
          "internalType": "address",
          "name": "receiver",
          "type": "address"
        }
      ],
      "name": "ERC20InvalidReceiver",
      "type": "error"
    },
    {
      "inputs": [
        {
          "internalType": "address",
          "name": "sender",
          "type": "address"
        }
      ],
      "name": "ERC20InvalidSender",
      "type": "error"
    },
    {
      "inputs": [
        {
          "internalType": "address",
          "name": "spender",
          "type": "address"
        }
      ],
      "name": "ERC20InvalidSpender",
      "type": "error"
    },
    {
      "anonymous": false,
      "inputs": [
        {
          "indexed": true,
          "internalType": "address",
          "name": "owner",
          "type": "address"
        },
        {
          "indexed": true,
          "internalType": "address",
          "name": "spender",
          "type": "address"
        },
        {
          "indexed": false,
          "internalType": "uint256",
          "name": "value",
          "type": "uint256"
        }
      ],
      "name": "Approval",
      "type": "event"
    },
    {
      "anonymous": false,
      "inputs": [
        {
          "indexed": true,
          "internalType": "address",
          "name": "from",
          "type": "address"
        },
        {
          "indexed": true,
          "internalType": "address",
          "name": "to",
          "type": "address"
        },
        {
          "indexed": false,
          "internalType": "uint256",
          "name": "value",
          "type": "uint256"
        }
      ],
      "name": "Transfer",
      "type": "event"
    },
    {
      "inputs": [
        {
          "internalType": "address",
          "name": "owner",
          "type": "address"
        },
        {
          "internalType": "address",
          "name": "spender",
          "type": "address"
        }
      ],
      "name": "allowance",
      "outputs": [
        {
          "internalType": "uint256",
          "name": "",
          "type": "uint256"
        }
      ],
      "stateMutability": "view",
      "type": "function"
    },
    {
      "inputs": [
        {
          "internalType": "address",
          "name": "spender",
          "type": "address"
        },
        {
          "internalType": "uint256",
          "name": "value",
          "type": "uint256"
        }
      ],
      "name": "approve",
      "outputs": [
        {
          "internalType": "bool",
          "name": "",
          "type": "bool"
        }
      ],
      "stateMutability": "nonpayable",
      "type": "function"
    },
    {
      "inputs": [
        {
          "internalType": "address",
          "name": "account",
          "type": "address"
        }
      ],
      "name": "balanceOf",
      "outputs": [
        {
          "internalType": "uint256",
          "name": "",
          "type": "uint256"
        }
      ],
      "stateMutability": "view",
      "type": "function"
    },
    {
      "inputs": [
        {
          "internalType": "address",
          "name": "account",
          "type": "address"
        },
        {
          "internalType": "uint256",
          "name": "tokens",
          "type": "uint256"
        }
      ],
      "name": "burn",
      "outputs": [],
      "stateMutability": "nonpayable",
      "type": "function"
    },
    {
      "inputs": [],
      "name": "decimals",
      "outputs": [
        {
          "internalType": "uint8",
          "name": "",
          "type": "uint8"
        }
      ],
      "stateMutability": "view",
      "type": "function"
    },
    {
      "inputs": [
        {
          "internalType": "address",
          "name": "account",
          "type": "address"
        },
        {
          "internalType": "uint256",
          "name": "tokens",
          "type": "uint256"
        }
      ],
      "name": "mint",
      "outputs": [],
      "stateMutability": "nonpayable",
      "type": "function"
    },
    {
      "inputs": [],
      "name": "name",
      "outputs": [
        {
          "internalType": "string",
          "name": "",
          "type": "string"
        }
      ],
      "stateMutability": "view",
      "type": "function"
    },
    {
      "inputs": [
        {
          "internalType": "address",
          "name": "dex",
          "type": "address"
        }
      ],
      "name": "setDEX",
      "outputs": [],
      "stateMutability": "nonpayable",
      "type": "function"
    },
    {
      "inputs": [],
      "name": "symbol",
      "outputs": [
        {
          "internalType": "string",
          "name": "",
          "type": "string"
        }
      ],
      "stateMutability": "view",
      "type": "function"
    },
    {
      "inputs": [],
      "name": "totalSupply",
      "outputs": [
        {
          "internalType": "uint256",
          "name": "",
          "type": "uint256"
        }
      ],
      "stateMutability": "view",
      "type": "function"
    },
    {
      "inputs": [
        {
          "internalType": "address",
          "name": "to",
          "type": "address"
        },
        {
          "internalType": "uint256",
          "name": "value",
          "type": "uint256"
        }
      ],
      "name": "transfer",
      "outputs": [
        {
          "internalType": "bool",
          "name": "",
          "type": "bool"
        }
      ],
      "stateMutability": "nonpayable",
      "type": "function"
    },
    {
      "inputs": [
        {
          "internalType": "address",
          "name": "from",
          "type": "address"
        },
        {
          "internalType": "address",
          "name": "to",
          "type": "address"
        },
        {
          "internalType": "uint256",
          "name": "value",
          "type": "uint256"
        }
      ],
      "name": "transferFrom",
      "outputs": [
        {
          "internalType": "bool",
          "name": "",
          "type": "bool"
        }
      ],
      "stateMutability": "nonpayable",
      "type": "function"
    }
  ],
  "bytecode": "0x608060405234801561000f575f5ffd5b506040518060400160405280600781526020016626282a37b5b2b760c91b8152506040518060400160405280600581526020016426282a25a760d91b815250816003908161005d9190610128565b50600461006a8282610128565b5050600580546001600160a01b03199081169091556006805490911633179055506101e2565b634e487b7160e01b5f52604160045260245ffd5b600181811c908216806100b857607f821691505b6020821081036100d657634e487b7160e01b5f52602260045260245ffd5b50919050565b601f82111561012357805f5260205f20601f840160051c810160208510156101015750805b601f840160051c820191505b81811015610120575f815560010161010d565b50505b505050565b81516001600160401b0381111561014157610141610090565b6101558161014f84546100a4565b846100dc565b6020601f821160018114610187575f83156101705750848201515b5f19600385901b1c1916600184901b178455610120565b5f84815260208120601f198516915b828110156101b65787850151825560209485019460019092019101610196565b50848210156101d357868401515f19600387901b60f8161c191681555b50505050600190811b01905550565b61097e806101ef5f395ff3fe608060405234801561000f575f5ffd5b50600436106100b1575f3560e01c806370a082311161006e57806370a082311461013f5780637b66a7231461016757806395d89b411461017a5780639dc29fac14610182578063a9059cbb14610195578063dd62ed3e146101a8575f5ffd5b806306fdde03146100b5578063095ea7b3146100d357806318160ddd146100f657806323b872dd14610108578063313ce5671461011b57806340c10f191461012a575b5f5ffd5b6100bd6101e0565b6040516100ca91906107ee565b60405180910390f35b6100e66100e136600461083e565b610270565b60405190151581526020016100ca565b6002545b6040519081526020016100ca565b6100e6610116366004610866565b610289565b604051601281526020016100ca565b61013d61013836600461083e565b6102ac565b005b6100fa61014d3660046108a0565b6001600160a01b03165f9081526020819052604090205490565b61013d6101753660046108a0565b61032b565b6100bd610412565b61013d61019036600461083e565b610421565b6100e66101a336600461083e565b610496565b6100fa6101b63660046108c0565b6001600160a01b039182165f90815260016020908152604080832093909416825291909152205490565b6060600380546101ef906108f1565b80601f016020809104026020016040519081016040528092919081815260200182805461021b906108f1565b80156102665780601f1061023d57610100808354040283529160200191610266565b820191905f5260205f20905b81548152906001019060200180831161024957829003601f168201915b5050505050905090565b5f3361027d8185856104a3565b60019150505b92915050565b5f336102968582856104b5565b6102a1858585610531565b506001949350505050565b6005546001600160a01b0316331461031d5760405162461bcd60e51b815260206004820152602960248201527f4c5020546f6b656e732063616e6e6f74206265206d696e746564206f757473696044820152680c8ca40decc40888ab60bb1b60648201526084015b60405180910390fd5b610327828261058e565b5050565b6006546001600160a01b031633146103975760405162461bcd60e51b815260206004820152602960248201527f596f7520617265206e6f74206f776e65722c20796f752063616e6e6f742073656044820152680e840e8d0ca40888ab60bb1b6064820152608401610314565b6005546001600160a01b0316156103f05760405162461bcd60e51b815260206004820152601960248201527f4445582068617320616c7265616479206265656e207365742e000000000000006044820152606401610314565b600580546001600160a01b0319166001600160a01b0392909216919091179055565b6060600480546101ef906108f1565b6005546001600160a01b0316331461048c5760405162461bcd60e51b815260206004820152602860248201527f4c5020546f6b656e732063616e6e6f74206265206275726e74206f75747369646044820152670ca40decc40888ab60c31b6064820152608401610314565b61032782826105c2565b5f3361027d818585610531565b6104b083838360016105f6565b505050565b6001600160a01b038381165f908152600160209081526040808320938616835292905220545f1981101561052b578181101561051d57604051637dc7a0d960e11b81526001600160a01b03841660048201526024810182905260448101839052606401610314565b61052b84848484035f6105f6565b50505050565b6001600160a01b03831661055a57604051634b637e8f60e11b81525f6004820152602401610314565b6001600160a01b0382166105835760405163ec442f0560e01b81525f6004820152602401610314565b6104b08383836106c8565b6001600160a01b0382166105b75760405163ec442f0560e01b81525f6004820152602401610314565b6103275f83836106c8565b6001600160a01b0382166105eb57604051634b637e8f60e11b81525f6004820152602401610314565b610327825f836106c8565b6001600160a01b03841661061f5760405163e602df0560e01b81525f6004820152602401610314565b6001600160a01b03831661064857604051634a1406b160e11b81525f6004820152602401610314565b6001600160a01b038085165f908152600160209081526040808320938716835292905220829055801561052b57826001600160a01b0316846001600160a01b03167f8c5be1e5ebec7d5bd14f71427d1e84f3dd0314c0f7b2291e5b200ac8c7c3b925846040516106ba91815260200190565b60405180910390a350505050565b6001600160a01b0383166106f2578060025f8282546106e79190610929565b909155506107629050565b6001600160a01b0383165f90815260208190526040902054818110156107445760405163391434e360e21b81526001600160a01b03851660048201526024810182905260448101839052606401610314565b6001600160a01b0384165f9081526020819052604090209082900390555b6001600160a01b03821661077e5760028054829003905561079c565b6001600160a01b0382165f9081526020819052604090208054820190555b816001600160a01b0316836001600160a01b03167fddf252ad1be2c89b69c2b068fc378daa952ba7f163c4a11628f55a4df523b3ef836040516107e191815260200190565b60405180910390a3505050565b602081525f82518060208401528060208501604085015e5f604082850101526040601f19601f83011684010191505092915050565b80356001600160a01b0381168114610839575f5ffd5b919050565b5f5f6040838503121561084f575f5ffd5b61085883610823565b946020939093013593505050565b5f5f5f60608486031215610878575f5ffd5b61088184610823565b925061088f60208501610823565b929592945050506040919091013590565b5f602082840312156108b0575f5ffd5b6108b982610823565b9392505050565b5f5f604083850312156108d1575f5ffd5b6108da83610823565b91506108e860208401610823565b90509250929050565b600181811c9082168061090557607f821691505b60208210810361092357634e487b7160e01b5f52602260045260245ffd5b50919050565b8082018082111561028357634e487b7160e01b5f52601160045260245ffdfea2646970667358221220f5efbdb1129d1bd3d3c016d5147a8f076b56c9b6e63fb5cf153c71074f357aa364736f6c634300081f0033",
  "linkReferences": {},
  "deployedLinkReferences": {},
  "immutableReferences": {},
  "inputSourceName": "project/contracts/LPToken.sol",
  "buildInfoId": "solc-0_8_31-f2194f4b99ac3bd090b59d2c710452adca9eb913"
}