{
  "_format": "hh3-artifact-1",
  "contractName": "Arbitrage",
  "sourceName": "contracts/Arbitrage.sol",
  "abi": [
    {
      "inputs": [
        {
          "internalType": "address",
          "name": "dex1",
          "type": "address"
        },
        {
          "internalType": "address",
          "name": "dex2",
          "type": "address"
        },
        {
          "internalType": "address",
          "name": "tokenA",
          "type": "address"
        },
        {
          "internalType": "address",
          "name": "tokenB",
          "type": "address"
        }
      ],
      "stateMutability": "nonpayable",
      "type": "constructor"
    },
    {
      "inputs": [
        {
          "internalType": "uint256",
          "name": "token_amt",
          "type": "uint256"
        },
        {
          "internalType": "enum Arbitrage.TokenNo",
          "name": "initialTokenType",
          "type": "uint8"
        }
      ],
      "name": "execute",
      "outputs": [],
      "stateMutability": "nonpayable",
      "type": "function"
    }
  ],
  "bytecode": "0x60a06040526005608052348015610014575f5ffd5b5060405161109f38038061109f833981016040819052610033916100a0565b5f80546001600160a01b039586166001600160a01b03199182161790915560018054948616948216949094179093556002805492851692841692909217909155600380549190931691161790556100f1565b80516001600160a01b038116811461009b575f5ffd5b919050565b5f5f5f5f608085870312156100b3575f5ffd5b6100bc85610085565b93506100ca60208601610085565b92506100d860408601610085565b91506100e660608601610085565b905092959194509250565b608051610f996101065f395f5050610f995ff3fe608060405234801561000f575f5ffd5b5060043610610029575f3560e01c8063427fd0ff1461002d575b5f5ffd5b61004061003b366004610daf565b610042565b005b6002546040516370a0823160e01b81523060048201525f916001600160a01b0316906370a0823190602401602060405180830381865afa158015610088573d5f5f3e3d5ffd5b505050506040513d601f19601f820116820180604052508101906100ac9190610de0565b6003546040516370a0823160e01b81523060048201529192505f916001600160a01b03909116906370a0823190602401602060405180830381865afa1580156100f7573d5f5f3e3d5ffd5b505050506040513d601f19601f8201168201806040525081019061011b9190610de0565b9050835f84600181111561013157610131610df7565b14610147576003546001600160a01b0316610154565b6002546001600160a01b03165b6040516370a0823160e01b81523360048201526001600160a01b0391909116906370a0823190602401602060405180830381865afa158015610198573d5f5f3e3d5ffd5b505050506040513d601f19601f820116820180604052508101906101bc9190610de0565b101561020f5760405162461bcd60e51b815260206004820152601d60248201527f596f7520646f206e6f74206861766520656e6f75676820746f6b656e7300000060448201526064015b60405180910390fd5b5f8084600181111561022357610223610df7565b14610239576003546001600160a01b0316610246565b6002546001600160a01b03165b6040516323b872dd60e01b8152336004820152306024820152604481018790526001600160a01b0391909116906323b872dd906064016020604051808303815f875af1158015610298573d5f5f3e3d5ffd5b505050506040513d601f19601f820116820180604052508101906102bc9190610e0b565b90508061030b5760405162461bcd60e51b815260206004820152601c60248201527f4973737565207768696c6520616363657074696e6720746f6b656e73000000006044820152606401610206565b5f5f5f9054906101000a90046001600160a01b03166001600160a01b031663398482d86040518163ffffffff1660e01b8152600401602060405180830381865afa15801561035b573d5f5f3e3d5ffd5b505050506040513d601f19601f8201168201806040525081019061037f9190610de0565b90505f60015f9054906101000a90046001600160a01b03166001600160a01b031663398482d86040518163ffffffff1660e01b8152600401602060405180830381865afa1580156103d2573d5f5f3e3d5ffd5b505050506040513d601f19601f820116820180604052508101906103f69190610de0565b90505f5f5f9054906101000a90046001600160a01b03166001600160a01b03166376adef436040518163ffffffff1660e01b8152600401602060405180830381865afa158015610448573d5f5f3e3d5ffd5b505050506040513d601f19601f8201168201806040525081019061046c9190610de0565b90505f60015f9054906101000a90046001600160a01b03166001600160a01b03166376adef436040518163ffffffff1660e01b8152600401602060405180830381865afa1580156104bf573d5f5f3e3d5ffd5b505050506040513d601f19601f820116820180604052508101906104e39190610de0565b90505f808960018111156104f9576104f9610df7565b146105045786610506565b875b90505f846105148585610e45565b61051f90600a610f41565b6105299088610f4c565b036105805760405162461bcd60e51b815260206004820152602160248201527f5468657265206973206e6f20617262697472616765206f70706f7274756e69746044820152607960f81b6064820152608401610206565b5f8a600181111561059357610593610df7565b03610941576002546001600160a01b031663095ea7b3866105b48787610e45565b6105bf90600a610f41565b6105c9908a610f4c565b106105df576001546001600160a01b03166105eb565b5f546001600160a01b03165b6040516001600160e01b031960e084901b1681526001600160a01b039091166004820152602481018e90526044016020604051808303815f875af1158015610635573d5f5f3e3d5ffd5b505050506040513d601f19601f820116820180604052508101906106599190610e0b565b50846106658585610e45565b61067090600a610f41565b61067a9088610f4c565b10610690576001546001600160a01b031661069c565b5f546001600160a01b03165b6001600160a01b031663543ab79f8c6040518263ffffffff1660e01b81526004016106c991815260200190565b5f604051808303815f87803b1580156106e0575f5ffd5b505af11580156106f2573d5f5f3e3d5ffd5b50506003546040516370a0823160e01b81523060048201525f93508b92506001600160a01b03909116906370a0823190602401602060405180830381865afa158015610740573d5f5f3e3d5ffd5b505050506040513d601f19601f820116820180604052508101906107649190610de0565b61076e9190610e45565b6003549091506001600160a01b031663095ea7b38761078d8888610e45565b61079890600a610f41565b6107a2908b610f4c565b106107b7575f546001600160a01b03166107c4565b6001546001600160a01b03165b6040516001600160e01b031960e084901b1681526001600160a01b039091166004820152602481018490526044016020604051808303815f875af115801561080e573d5f5f3e3d5ffd5b505050506040513d601f19601f820116820180604052508101906108329190610e0b565b508561083e8686610e45565b61084990600a610f41565b6108539089610f4c565b10610868575f546001600160a01b0316610875565b6001546001600160a01b03165b6001600160a01b031663ef874b06826040518263ffffffff1660e01b81526004016108a291815260200190565b5f604051808303815f87803b1580156108b9575f5ffd5b505af11580156108cb573d5f5f3e3d5ffd5b50506002546040516370a0823160e01b81523060048201526001600160a01b0390911692506370a082319150602401602060405180830381865afa158015610915573d5f5f3e3d5ffd5b505050506040513d601f19601f820116820180604052508101906109399190610de0565b915050610ce6565b6003546001600160a01b031663095ea7b38661095d8787610e45565b61096890600a610f41565b610972908a610f4c565b10610988576001546001600160a01b0316610994565b5f546001600160a01b03165b6040516001600160e01b031960e084901b1681526001600160a01b039091166004820152602481018e90526044016020604051808303815f875af11580156109de573d5f5f3e3d5ffd5b505050506040513d601f19601f82011682018060405250810190610a029190610e0b565b5084610a0e8585610e45565b610a1990600a610f41565b610a239088610f4c565b10610a39576001546001600160a01b0316610a45565b5f546001600160a01b03165b6001600160a01b031663ef874b068c6040518263ffffffff1660e01b8152600401610a7291815260200190565b5f604051808303815f87803b158015610a89575f5ffd5b505af1158015610a9b573d5f5f3e3d5ffd5b50506002546040516370a0823160e01b81523060048201525f93508c92506001600160a01b03909116906370a0823190602401602060405180830381865afa158015610ae9573d5f5f3e3d5ffd5b505050506040513d601f19601f82011682018060405250810190610b0d9190610de0565b610b179190610e45565b6002549091506001600160a01b031663095ea7b387610b368888610e45565b610b4190600a610f41565b610b4b908b610f4c565b10610b60575f546001600160a01b0316610b6d565b6001546001600160a01b03165b6040516001600160e01b031960e084901b1681526001600160a01b039091166004820152602481018490526044016020604051808303815f875af1158015610bb7573d5f5f3e3d5ffd5b505050506040513d601f19601f82011682018060405250810190610bdb9190610e0b565b5085610be78686610e45565b610bf290600a610f41565b610bfc9089610f4c565b10610c11575f546001600160a01b0316610c1e565b6001546001600160a01b03165b6001600160a01b031663543ab79f826040518263ffffffff1660e01b8152600401610c4b91815260200190565b5f604051808303815f87803b158015610c62575f5ffd5b505af1158015610c74573d5f5f3e3d5ffd5b50506003546040516370a0823160e01b81523060048201526001600160a01b0390911692506370a082319150602401602060405180830381865afa158015610cbe573d5f5f3e3d5ffd5b505050506040513d601f19601f82011682018060405250810190610ce29190610de0565b9150505b5f8a6001811115610cf957610cf9610df7565b14610d0f576003546001600160a01b0316610d1c565b6002546001600160a01b03165b6001600160a01b031663a9059cbb33610d358585610e45565b6040516001600160e01b031960e085901b1681526001600160a01b03909216600483015260248201526044016020604051808303815f875af1158015610d7d573d5f5f3e3d5ffd5b505050506040513d601f19601f82011682018060405250810190610da19190610e0b565b505050505050505050505050565b5f5f60408385031215610dc0575f5ffd5b82359150602083013560028110610dd5575f5ffd5b809150509250929050565b5f60208284031215610df0575f5ffd5b5051919050565b634e487b7160e01b5f52602160045260245ffd5b5f60208284031215610e1b575f5ffd5b81518015158114610e2a575f5ffd5b9392505050565b634e487b7160e01b5f52601160045260245ffd5b81810381811115610e5857610e58610e31565b92915050565b6001815b6001841115610e9957808504811115610e7d57610e7d610e31565b6001841615610e8b57908102905b60019390931c928002610e62565b935093915050565b5f82610eaf57506001610e58565b81610ebb57505f610e58565b8160018114610ed15760028114610edb57610ef7565b6001915050610e58565b60ff841115610eec57610eec610e31565b50506001821b610e58565b5060208310610133831016604e8410600b8410161715610f1a575081810a610e58565b610f265f198484610e5e565b805f1904821115610f3957610f39610e31565b029392505050565b5f610e2a8383610ea1565b8082028115828204841417610e5857610e58610e3156fea2646970667358221220a71410e6b6ce9332c6fe040c0e9758d757f7a90ba6a1a8197151de13a179eaf464736f6c634300081f0033",
  "linkReferences": {},
  "deployedLinkReferences": {},
  "immutableReferences": {},
  "inputSourceName": "project/contracts/Arbitrage.sol",
  "buildInfoId": "solc-0_8_31-2d08661069d6be3f775a0085c1b087d36e7436ac"
}