{
  "_format": "hh3-artifact-1",
  "contractName": "DEX",
  "sourceName": "contracts/DEX.sol",
  "abi": [
    {
      "inputs": [
        {
          "internalType": "address",
          "name": "tokenA",
          "type": "address"
        },
        {
          "internalType": "address",
          "name": "tokenB",
          "type": "address"
        },
        {
          "internalType": "address",
          "name": "tokenLp",
          "type": "address"
        }
      ],
      "stateMutability": "nonpayable",
      "type": "constructor"
    },
    {
      "inputs": [
        {
          "internalType": "uint256",
          "name": "amt",
          "type": "uint256"
        }
      ],
      "name": "calcFees",
      "outputs": [
        {
          "internalType": "uint256",
          "name": "",
          "type": "uint256"
        }
      ],
      "stateMutability": "pure",
      "type": "function"
    },
    {
      "inputs": [],
      "name": "decimals_precision",
      "outputs": [
        {
          "internalType": "uint256",
          "name": "",
          "type": "uint256"
        }
      ],
      "stateMutability": "view",
      "type": "function"
    },
    {
      "inputs": [
        {
          "internalType": "uint256",
          "name": "a_amt",
          "type": "uint256"
        },
        {
          "internalType": "uint256",
          "name": "b_amt",
          "type": "uint256"
        }
      ],
      "name": "deposit",
      "outputs": [],
      "stateMutability": "nonpayable",
      "type": "function"
    },
    {
      "inputs": [],
      "name": "resA",
      "outputs": [
        {
          "internalType": "uint256",
          "name": "",
          "type": "uint256"
        }
      ],
      "stateMutability": "view",
      "type": "function"
    },
    {
      "inputs": [],
      "name": "resB",
      "outputs": [
        {
          "internalType": "uint256",
          "name": "",
          "type": "uint256"
        }
      ],
      "stateMutability": "view",
      "type": "function"
    },
    {
      "inputs": [],
      "name": "spotPrice",
      "outputs": [
        {
          "internalType": "uint256",
          "name": "",
          "type": "uint256"
        }
      ],
      "stateMutability": "view",
      "type": "function"
    },
    {
      "inputs": [
        {
          "internalType": "uint256",
          "name": "a_amt",
          "type": "uint256"
        }
      ],
      "name": "swapA",
      "outputs": [],
      "stateMutability": "nonpayable",
      "type": "function"
    },
    {
      "inputs": [
        {
          "internalType": "uint256",
          "name": "b_amt",
          "type": "uint256"
        }
      ],
      "name": "swapB",
      "outputs": [],
      "stateMutability": "nonpayable",
      "type": "function"
    },
    {
      "inputs": [],
      "name": "tokenAprice",
      "outputs": [
        {
          "internalType": "uint256",
          "name": "",
          "type": "uint256"
        }
      ],
      "stateMutability": "view",
      "type": "function"
    },
    {
      "inputs": [],
      "name": "tokenBprice",
      "outputs": [
        {
          "internalType": "uint256",
          "name": "",
          "type": "uint256"
        }
      ],
      "stateMutability": "view",
      "type": "function"
    },
    {
      "inputs": [
        {
          "internalType": "uint256",
          "name": "lp_amt",
          "type": "uint256"
        }
      ],
      "name": "withdraw",
      "outputs": [],
      "stateMutability": "nonpayable",
      "type": "function"
    }
  ],
  "bytecode": "0x6080604052348015600e575f5ffd5b50604051611438380380611438833981016040819052602b916091565b5f80546001600160a01b03199081166001600160a01b039586161782556001805482169486169490941790935560028054909316919093161790556004819055600355601260055560ca565b80516001600160a01b0381168114608c575f5ffd5b919050565b5f5f5f6060848603121560a2575f5ffd5b60a9846077565b925060b5602085016077565b915060c1604085016077565b90509250925092565b611361806100d75f395ff3fe608060405234801561000f575f5ffd5b50600436106100a6575f3560e01c80635be62f651161006e5780635be62f65146100f85780636239277c1461010057806376adef4314610113578063c9d878941461011b578063e2bbb15814610123578063ef874b0614610136575f5ffd5b8063144c4545146100aa5780632520be11146100c05780632e1a7d4d146100c8578063398482d8146100dd578063543ab79f146100e5575b5f5ffd5b6003545b60405190815260200160405180910390f35b6100ae610149565b6100db6100d6366004611079565b610157565b005b6100ae610551565b6100db6100f3366004611079565b61057b565b6100ae610869565b6100ae61010e366004611079565b610896565b6005546100ae565b6004546100ae565b6100db610131366004611090565b6108b5565b6100db610144366004611079565b610d92565b5f610152610551565b905090565b6002546040516370a0823160e01b81523360048201526001600160a01b03909116906370a0823190602401602060405180830381865afa15801561019d573d5f5f3e3d5ffd5b505050506040513d601f19601f820116820180604052508101906101c191906110b0565b8111156102155760405162461bcd60e51b815260206004820152601f60248201527f596f7520646f6e2774206861766520656e6f756768204c5020546f6b656e730060448201526064015b60405180910390fd5b600254604080516318160ddd60e01b815290515f926001600160a01b0316916318160ddd9160048083019260209291908290030181865afa15801561025c573d5f5f3e3d5ffd5b505050506040513d601f19601f8201168201806040525081019061028091906110b0565b60035461028d90846110db565b61029791906110f2565b90505f60025f9054906101000a90046001600160a01b03166001600160a01b03166318160ddd6040518163ffffffff1660e01b8152600401602060405180830381865afa1580156102ea573d5f5f3e3d5ffd5b505050506040513d601f19601f8201168201806040525081019061030e91906110b0565b60045461031b90856110db565b61032591906110f2565b600254604051632770a7eb60e21b8152336004820152602481018690529192506001600160a01b031690639dc29fac906044015f604051808303815f87803b15801561036f575f5ffd5b505af1158015610381573d5f5f3e3d5ffd5b505050508160035f8282546103969190611111565b925050819055508060045f8282546103ae9190611111565b90915550505f5460405163a9059cbb60e01b8152336004820152602481018490526001600160a01b039091169063a9059cbb906044016020604051808303815f875af1158015610400573d5f5f3e3d5ffd5b505050506040513d601f19601f820116820180604052508101906104249190611124565b61047f5760405162461bcd60e51b815260206004820152602660248201527f4572726f722072656d697474696e67204120746f6b656e7320666f72204c5020604482015265746f6b656e7360d01b606482015260840161020c565b60015460405163a9059cbb60e01b8152336004820152602481018390526001600160a01b039091169063a9059cbb906044016020604051808303815f875af11580156104cd573d5f5f3e3d5ffd5b505050506040513d601f19601f820116820180604052508101906104f19190611124565b61054c5760405162461bcd60e51b815260206004820152602660248201527f4572726f722072656d697474696e67204220746f6b656e7320666f72204c5020604482015265746f6b656e7360d01b606482015260840161020c565b505050565b5f600454600354600554600a610567919061122d565b61057191906110db565b61015291906110f2565b5f546040516370a0823160e01b81523360048201526001600160a01b03909116906370a0823190602401602060405180830381865afa1580156105c0573d5f5f3e3d5ffd5b505050506040513d601f19601f820116820180604052508101906105e491906110b0565b8111156106335760405162461bcd60e51b815260206004820152601d60248201527f596f7520646f6e2774206861766520656e6f75676820746f6b656e2041000000604482015260640161020c565b5f80546040516323b872dd60e01b81526001600160a01b03909116906323b872dd9061066790339030908790600401611238565b6020604051808303815f875af1158015610683573d5f5f3e3d5ffd5b505050506040513d601f19601f820116820180604052508101906106a79190611124565b9050806106c65760405162461bcd60e51b815260040161020c9061125c565b5f6106d083610896565b90506106dc8184611111565b92505f831161072d5760405162461bcd60e51b815260206004820152601f60248201527f546f6b656e73206e6f7420656e6f75676820746f20636f766572206665657300604482015260640161020c565b5f8360035461073c91906112a3565b60045460035461074c91906110db565b61075691906110f2565b6004546107639190611111565b90508360035f82825461077691906112a3565b925050819055508060045f82825461078e9190611111565b909155505060015460405163a9059cbb60e01b8152336004820152602481018390526001600160a01b039091169063a9059cbb906044016020604051808303815f875af11580156107e1573d5f5f3e3d5ffd5b505050506040513d601f19601f820116820180604052508101906108059190611124565b6108635760405162461bcd60e51b815260206004820152602960248201527f4973737565207768696c652073656e64696e67204220746f6b656e7320696e206044820152680412d3e4220737761760bc1b606482015260840161020c565b50505050565b5f610872610551565b6005546108809060026110db565b61088b90600a61122d565b6105719060016110db565b5f6103e86108a58360036110db565b6108af91906110f2565b92915050565b5f546040516370a0823160e01b81523360048201526001600160a01b03909116906370a0823190602401602060405180830381865afa1580156108fa573d5f5f3e3d5ffd5b505050506040513d601f19601f8201168201806040525081019061091e91906110b0565b82111561096d5760405162461bcd60e51b815260206004820152601e60248201527f596f7520646f6e2774206861766520656e6f756768206120746f6b656e730000604482015260640161020c565b6001546040516370a0823160e01b81523360048201526001600160a01b03909116906370a0823190602401602060405180830381865afa1580156109b3573d5f5f3e3d5ffd5b505050506040513d601f19601f820116820180604052508101906109d791906110b0565b811115610a265760405162461bcd60e51b815260206004820152601e60248201527f596f7520646f6e2774206861766520656e6f756768206220746f6b656e730000604482015260640161020c565b6002546040805163313ce56760e01b815290515f926001600160a01b03169163313ce5679160048083019260209291908290030181865afa158015610a6d573d5f5f3e3d5ffd5b505050506040513d601f19601f82011682018060405250810190610a9191906112b6565b610a9c90600a6112d6565b90506003545f14610be15760045482600354610ab891906110db565b610ac291906110f2565b831480610ae8575060035483600454610adb91906110db565b610ae591906110f2565b82145b610b5c576040805162461bcd60e51b81526020600482015260248101919091527f5765206e65656420615f616d74203d3d20615f7265732a625f616d742f625f7260448201527f6573207c7c20625f616d74203d3d20625f7265732a615f616d742f615f726573606482015260840161020c565b600354600254604080516318160ddd60e01b8152905186926001600160a01b0316916318160ddd9160048083019260209291908290030181865afa158015610ba6573d5f5f3e3d5ffd5b505050506040513d601f19601f82011682018060405250810190610bca91906110b0565b610bd491906110db565b610bde91906110f2565b90505b5f546040516323b872dd60e01b81526001600160a01b03909116906323b872dd90610c1490339030908890600401611238565b6020604051808303815f875af1158015610c30573d5f5f3e3d5ffd5b505050506040513d601f19601f82011682018060405250810190610c549190611124565b610c705760405162461bcd60e51b815260040161020c9061125c565b6001546040516323b872dd60e01b81526001600160a01b03909116906323b872dd90610ca490339030908790600401611238565b6020604051808303815f875af1158015610cc0573d5f5f3e3d5ffd5b505050506040513d601f19601f82011682018060405250810190610ce49190611124565b610d005760405162461bcd60e51b815260040161020c906112e4565b8260035f828254610d1191906112a3565b925050819055508160045f828254610d2991906112a3565b90915550506002546040516340c10f1960e01b8152336004820152602481018390526001600160a01b03909116906340c10f19906044015f604051808303815f87803b158015610d77575f5ffd5b505af1158015610d89573d5f5f3e3d5ffd5b50505050505050565b6001546040516370a0823160e01b81523360048201526001600160a01b03909116906370a0823190602401602060405180830381865afa158015610dd8573d5f5f3e3d5ffd5b505050506040513d601f19601f82011682018060405250810190610dfc91906110b0565b811115610e4b5760405162461bcd60e51b815260206004820152601d60248201527f596f7520646f6e2774206861766520656e6f75676820746f6b656e2042000000604482015260640161020c565b6001546040516323b872dd60e01b81526001600160a01b03909116906323b872dd90610e7f90339030908690600401611238565b6020604051808303815f875af1158015610e9b573d5f5f3e3d5ffd5b505050506040513d601f19601f82011682018060405250810190610ebf9190611124565b610edb5760405162461bcd60e51b815260040161020c906112e4565b5f610ee582610896565b9050610ef18183611111565b91505f8211610f425760405162461bcd60e51b815260206004820152601f60248201527f546f6b656e73206e6f7420656e6f75676820746f20636f766572206665657300604482015260640161020c565b5f82600454610f5191906112a3565b600454600354610f6191906110db565b610f6b91906110f2565b600354610f789190611111565b90508060035f828254610f8b9190611111565b925050819055508260045f828254610fa391906112a3565b90915550505f5460405163a9059cbb60e01b8152336004820152602481018390526001600160a01b039091169063a9059cbb906044016020604051808303815f875af1158015610ff5573d5f5f3e3d5ffd5b505050506040513d601f19601f820116820180604052508101906110199190611124565b61054c5760405162461bcd60e51b815260206004820152602b60248201527f4973737565207768696c652072656d697474696e67204120746f6b656e73206960448201526a06e20422d3e4120737761760ac1b606482015260840161020c565b5f60208284031215611089575f5ffd5b5035919050565b5f5f604083850312156110a1575f5ffd5b50508035926020909101359150565b5f602082840312156110c0575f5ffd5b5051919050565b634e487b7160e01b5f52601160045260245ffd5b80820281158282048414176108af576108af6110c7565b5f8261110c57634e487b7160e01b5f52601260045260245ffd5b500490565b818103818111156108af576108af6110c7565b5f60208284031215611134575f5ffd5b81518015158114611143575f5ffd5b9392505050565b6001815b600184111561118557808504811115611169576111696110c7565b600184161561117757908102905b60019390931c92800261114e565b935093915050565b5f8261119b575060016108af565b816111a757505f6108af565b81600181146111bd57600281146111c7576111e3565b60019150506108af565b60ff8411156111d8576111d86110c7565b50506001821b6108af565b5060208310610133831016604e8410600b8410161715611206575081810a6108af565b6112125f19848461114a565b805f1904821115611225576112256110c7565b029392505050565b5f611143838361118d565b6001600160a01b039384168152919092166020820152604081019190915260600190565b60208082526027908201527f456e7375726520656e6f75676820746f6b656e204120686173206265656e20616040820152661c1c1c9bdd995960ca1b606082015260800190565b808201808211156108af576108af6110c7565b5f602082840312156112c6575f5ffd5b815160ff81168114611143575f5ffd5b5f61114360ff84168361118d565b60208082526027908201527f456e7375726520656e6f75676820746f6b656e204220686173206265656e20616040820152661c1c1c9bdd995960ca1b60608201526080019056fea2646970667358221220e86f5b6347ad3fc5ca43a70c19fd4324f900857ffb67dec6b50a6315bdb5e60c64736f6c634300081f0033",
  "linkReferences": {},
  "deployedLinkReferences": {},
  "immutableReferences": {},
  "inputSourceName": "project/contracts/DEX.sol",
  "buildInfoId": "solc-0_8_31-35e223aaec4c5ccbd9a7986c9b0b1175616ad5c8"
}