{
  "_format": "hh3-artifact-1",
  "contractName": "DEX",
  "sourceName": "contracts/DEX.sol",
  "abi": [
    {
      "inputs": [
        {
          "internalType": "address",
          "name": "tokenA",
          "type": "address"
        },
        {
          "internalType": "address",
          "name": "tokenB",
          "type": "address"
        },
        {
          "internalType": "address",
          "name": "tokenLp",
          "type": "address"
        }
      ],
      "stateMutability": "nonpayable",
      "type": "constructor"
    },
    {
      "inputs": [
        {
          "internalType": "uint256",
          "name": "amt",
          "type": "uint256"
        }
      ],
      "name": "calcFees",
      "outputs": [
        {
          "internalType": "uint256",
          "name": "",
          "type": "uint256"
        }
      ],
      "stateMutability": "pure",
      "type": "function"
    },
    {
      "inputs": [],
      "name": "decimals_precision",
      "outputs": [
        {
          "internalType": "uint256",
          "name": "",
          "type": "uint256"
        }
      ],
      "stateMutability": "view",
      "type": "function"
    },
    {
      "inputs": [
        {
          "internalType": "uint256",
          "name": "a_amt",
          "type": "uint256"
        },
        {
          "internalType": "uint256",
          "name": "b_amt",
          "type": "uint256"
        }
      ],
      "name": "deposit",
      "outputs": [],
      "stateMutability": "nonpayable",
      "type": "function"
    },
    {
      "inputs": [],
      "name": "resA",
      "outputs": [
        {
          "internalType": "uint256",
          "name": "",
          "type": "uint256"
        }
      ],
      "stateMutability": "view",
      "type": "function"
    },
    {
      "inputs": [],
      "name": "resB",
      "outputs": [
        {
          "internalType": "uint256",
          "name": "",
          "type": "uint256"
        }
      ],
      "stateMutability": "view",
      "type": "function"
    },
    {
      "inputs": [],
      "name": "spotPrice",
      "outputs": [
        {
          "internalType": "uint256",
          "name": "",
          "type": "uint256"
        }
      ],
      "stateMutability": "view",
      "type": "function"
    },
    {
      "inputs": [
        {
          "internalType": "uint256",
          "name": "a_amt",
          "type": "uint256"
        }
      ],
      "name": "swapA",
      "outputs": [],
      "stateMutability": "nonpayable",
      "type": "function"
    },
    {
      "inputs": [
        {
          "internalType": "uint256",
          "name": "b_amt",
          "type": "uint256"
        }
      ],
      "name": "swapB",
      "outputs": [],
      "stateMutability": "nonpayable",
      "type": "function"
    },
    {
      "inputs": [],
      "name": "tokenAprice",
      "outputs": [
        {
          "internalType": "uint256",
          "name": "",
          "type": "uint256"
        }
      ],
      "stateMutability": "view",
      "type": "function"
    },
    {
      "inputs": [],
      "name": "tokenBprice",
      "outputs": [
        {
          "internalType": "uint256",
          "name": "",
          "type": "uint256"
        }
      ],
      "stateMutability": "view",
      "type": "function"
    },
    {
      "inputs": [
        {
          "internalType": "uint256",
          "name": "lp_amt",
          "type": "uint256"
        }
      ],
      "name": "withdraw",
      "outputs": [],
      "stateMutability": "nonpayable",
      "type": "function"
    }
  ],
  "bytecode": "0x608060405234801561000f575f5ffd5b506040516122e63803806122e68339818101604052810190610031919061016a565b825f5f6101000a81548173ffffffffffffffffffffffffffffffffffffffff021916908373ffffffffffffffffffffffffffffffffffffffff1602179055508160015f6101000a81548173ffffffffffffffffffffffffffffffffffffffff021916908373ffffffffffffffffffffffffffffffffffffffff1602179055508060025f6101000a81548173ffffffffffffffffffffffffffffffffffffffff021916908373ffffffffffffffffffffffffffffffffffffffff1602179055505f600481905560038190555060126005819055505050506101ba565b5f5ffd5b5f73ffffffffffffffffffffffffffffffffffffffff82169050919050565b5f61013982610110565b9050919050565b6101498161012f565b8114610153575f5ffd5b50565b5f8151905061016481610140565b92915050565b5f5f5f606084860312156101815761018061010c565b5b5f61018e86828701610156565b935050602061019f86828701610156565b92505060406101b086828701610156565b9150509250925092565b61211f806101c75f395ff3fe608060405234801561000f575f5ffd5b50600436106100a7575f3560e01c80635be62f651161006f5780635be62f651461013d5780636239277c1461015b57806376adef431461018b578063c9d87894146101a9578063e2bbb158146101c7578063ef874b06146101e3576100a7565b8063144c4545146100ab5780632520be11146100c95780632e1a7d4d146100e7578063398482d814610103578063543ab79f14610121575b5f5ffd5b6100b36101ff565b6040516100c091906114c7565b60405180910390f35b6100d1610208565b6040516100de91906114c7565b60405180910390f35b61010160048036038101906100fc919061150e565b610216565b005b61010b6106b6565b60405161011891906114c7565b60405180910390f35b61013b6004803603810190610136919061150e565b6106e5565b005b610145610a95565b60405161015291906114c7565b60405180910390f35b6101756004803603810190610170919061150e565b610ad4565b60405161018291906114c7565b60405180910390f35b610193610af6565b6040516101a091906114c7565b60405180910390f35b6101b1610aff565b6040516101be91906114c7565b60405180910390f35b6101e160048036038101906101dc9190611539565b610b08565b005b6101fd60048036038101906101f8919061150e565b611103565b005b5f600354905090565b5f6102116106b6565b905090565b60025f9054906101000a900473ffffffffffffffffffffffffffffffffffffffff1673ffffffffffffffffffffffffffffffffffffffff166370a08231336040518263ffffffff1660e01b815260040161027091906115b6565b602060405180830381865afa15801561028b573d5f5f3e3d5ffd5b505050506040513d601f19601f820116820180604052508101906102af91906115e3565b8111156102f1576040517f08c379a00000000000000000000000000000000000000000000000000000000081526004016102e890611668565b60405180910390fd5b5f60025f9054906101000a900473ffffffffffffffffffffffffffffffffffffffff1673ffffffffffffffffffffffffffffffffffffffff166318160ddd6040518163ffffffff1660e01b8152600401602060405180830381865afa15801561035c573d5f5f3e3d5ffd5b505050506040513d601f19601f8201168201806040525081019061038091906115e3565b6003548361038e91906116b3565b6103989190611721565b90505f60025f9054906101000a900473ffffffffffffffffffffffffffffffffffffffff1673ffffffffffffffffffffffffffffffffffffffff166318160ddd6040518163ffffffff1660e01b8152600401602060405180830381865afa158015610405573d5f5f3e3d5ffd5b505050506040513d601f19601f8201168201806040525081019061042991906115e3565b6004548461043791906116b3565b6104419190611721565b905060025f9054906101000a900473ffffffffffffffffffffffffffffffffffffffff1673ffffffffffffffffffffffffffffffffffffffff16639dc29fac33856040518363ffffffff1660e01b815260040161049f929190611751565b5f604051808303815f87803b1580156104b6575f5ffd5b505af11580156104c8573d5f5f3e3d5ffd5b505050508160035f8282546104dd9190611778565b925050819055508060045f8282546104f59190611778565b925050819055505f5f9054906101000a900473ffffffffffffffffffffffffffffffffffffffff1673ffffffffffffffffffffffffffffffffffffffff1663a9059cbb33846040518363ffffffff1660e01b8152600401610557929190611751565b6020604051808303815f875af1158015610573573d5f5f3e3d5ffd5b505050506040513d601f19601f8201168201806040525081019061059791906117e0565b6105d6576040517f08c379a00000000000000000000000000000000000000000000000000000000081526004016105cd9061187b565b60405180910390fd5b60015f9054906101000a900473ffffffffffffffffffffffffffffffffffffffff1673ffffffffffffffffffffffffffffffffffffffff1663a9059cbb33836040518363ffffffff1660e01b8152600401610632929190611751565b6020604051808303815f875af115801561064e573d5f5f3e3d5ffd5b505050506040513d601f19601f8201168201806040525081019061067291906117e0565b6106b1576040517f08c379a00000000000000000000000000000000000000000000000000000000081526004016106a890611909565b60405180910390fd5b505050565b5f600454600354600554600a6106cc9190611a56565b6106d691906116b3565b6106e09190611721565b905090565b5f6003541180156106f757505f600454115b610736576040517f08c379a000000000000000000000000000000000000000000000000000000000815260040161072d90611aea565b60405180910390fd5b5f5f9054906101000a900473ffffffffffffffffffffffffffffffffffffffff1673ffffffffffffffffffffffffffffffffffffffff166370a08231336040518263ffffffff1660e01b815260040161078f91906115b6565b602060405180830381865afa1580156107aa573d5f5f3e3d5ffd5b505050506040513d601f19601f820116820180604052508101906107ce91906115e3565b811115610810576040517f08c379a000000000000000000000000000000000000000000000000000000000815260040161080790611b52565b60405180910390fd5b5f5f5f9054906101000a900473ffffffffffffffffffffffffffffffffffffffff1673ffffffffffffffffffffffffffffffffffffffff166323b872dd3330856040518463ffffffff1660e01b815260040161086e93929190611b70565b6020604051808303815f875af115801561088a573d5f5f3e3d5ffd5b505050506040513d601f19601f820116820180604052508101906108ae91906117e0565b9050806108f0576040517f08c379a00000000000000000000000000000000000000000000000000000000081526004016108e790611c15565b60405180910390fd5b5f6108fa83610ad4565b905080836109089190611778565b92505f831161094c576040517f08c379a000000000000000000000000000000000000000000000000000000000815260040161094390611c7d565b60405180910390fd5b5f8360035461095b9190611c9b565b60045460035461096b91906116b3565b6109759190611721565b6004546109829190611778565b90508360035f8282546109959190611c9b565b925050819055508060045f8282546109ad9190611778565b9250508190555060015f9054906101000a900473ffffffffffffffffffffffffffffffffffffffff1673ffffffffffffffffffffffffffffffffffffffff1663a9059cbb33836040518363ffffffff1660e01b8152600401610a10929190611751565b6020604051808303815f875af1158015610a2c573d5f5f3e3d5ffd5b505050506040513d601f19601f82011682018060405250810190610a5091906117e0565b610a8f576040517f08c379a0000000000000000000000000000000000000000000000000000000008152600401610a8690611d3e565b60405180910390fd5b50505050565b5f610a9e6106b6565b60016005546002610aaf91906116b3565b600a610abb9190611a56565b610ac591906116b3565b610acf9190611721565b905090565b5f6103e8600383610ae591906116b3565b610aef9190611721565b9050919050565b5f600554905090565b5f600454905090565b5f5f9054906101000a900473ffffffffffffffffffffffffffffffffffffffff1673ffffffffffffffffffffffffffffffffffffffff166370a08231336040518263ffffffff1660e01b8152600401610b6191906115b6565b602060405180830381865afa158015610b7c573d5f5f3e3d5ffd5b505050506040513d601f19601f82011682018060405250810190610ba091906115e3565b821115610be2576040517f08c379a0000000000000000000000000000000000000000000000000000000008152600401610bd990611da6565b60405180910390fd5b60015f9054906101000a900473ffffffffffffffffffffffffffffffffffffffff1673ffffffffffffffffffffffffffffffffffffffff166370a08231336040518263ffffffff1660e01b8152600401610c3c91906115b6565b602060405180830381865afa158015610c57573d5f5f3e3d5ffd5b505050506040513d601f19601f82011682018060405250810190610c7b91906115e3565b811115610cbd576040517f08c379a0000000000000000000000000000000000000000000000000000000008152600401610cb490611e0e565b60405180910390fd5b5f60025f9054906101000a900473ffffffffffffffffffffffffffffffffffffffff1673ffffffffffffffffffffffffffffffffffffffff1663313ce5676040518163ffffffff1660e01b8152600401602060405180830381865afa158015610d28573d5f5f3e3d5ffd5b505050506040513d601f19601f82011682018060405250810190610d4c9190611e62565b600a610d589190611e8d565b90505f60035414610e8c5760045482600354610d7491906116b3565b610d7e9190611721565b831480610da4575060035483600454610d9791906116b3565b610da19190611721565b82145b610de3576040517f08c379a0000000000000000000000000000000000000000000000000000000008152600401610dda90611f47565b60405180910390fd5b6003548360025f9054906101000a900473ffffffffffffffffffffffffffffffffffffffff1673ffffffffffffffffffffffffffffffffffffffff166318160ddd6040518163ffffffff1660e01b8152600401602060405180830381865afa158015610e51573d5f5f3e3d5ffd5b505050506040513d601f19601f82011682018060405250810190610e7591906115e3565b610e7f91906116b3565b610e899190611721565b90505b5f5f9054906101000a900473ffffffffffffffffffffffffffffffffffffffff1673ffffffffffffffffffffffffffffffffffffffff166323b872dd3330866040518463ffffffff1660e01b8152600401610ee993929190611b70565b6020604051808303815f875af1158015610f05573d5f5f3e3d5ffd5b505050506040513d601f19601f82011682018060405250810190610f2991906117e0565b610f68576040517f08c379a0000000000000000000000000000000000000000000000000000000008152600401610f5f90611c15565b60405180910390fd5b60015f9054906101000a900473ffffffffffffffffffffffffffffffffffffffff1673ffffffffffffffffffffffffffffffffffffffff166323b872dd3330856040518463ffffffff1660e01b8152600401610fc693929190611b70565b6020604051808303815f875af1158015610fe2573d5f5f3e3d5ffd5b505050506040513d601f19601f8201168201806040525081019061100691906117e0565b611045576040517f08c379a000000000000000000000000000000000000000000000000000000000815260040161103c90611fd5565b60405180910390fd5b8260035f8282546110569190611c9b565b925050819055508160045f82825461106e9190611c9b565b9250508190555060025f9054906101000a900473ffffffffffffffffffffffffffffffffffffffff1673ffffffffffffffffffffffffffffffffffffffff166340c10f1933836040518363ffffffff1660e01b81526004016110d1929190611751565b5f604051808303815f87803b1580156110e8575f5ffd5b505af11580156110fa573d5f5f3e3d5ffd5b50505050505050565b5f60035411801561111557505f600454115b611154576040517f08c379a000000000000000000000000000000000000000000000000000000000815260040161114b90611aea565b60405180910390fd5b60015f9054906101000a900473ffffffffffffffffffffffffffffffffffffffff1673ffffffffffffffffffffffffffffffffffffffff166370a08231336040518263ffffffff1660e01b81526004016111ae91906115b6565b602060405180830381865afa1580156111c9573d5f5f3e3d5ffd5b505050506040513d601f19601f820116820180604052508101906111ed91906115e3565b81111561122f576040517f08c379a00000000000000000000000000000000000000000000000000000000081526004016112269061203d565b60405180910390fd5b60015f9054906101000a900473ffffffffffffffffffffffffffffffffffffffff1673ffffffffffffffffffffffffffffffffffffffff166323b872dd3330846040518463ffffffff1660e01b815260040161128d93929190611b70565b6020604051808303815f875af11580156112a9573d5f5f3e3d5ffd5b505050506040513d601f19601f820116820180604052508101906112cd91906117e0565b61130c576040517f08c379a000000000000000000000000000000000000000000000000000000000815260040161130390611fd5565b60405180910390fd5b5f61131682610ad4565b905080826113249190611778565b91505f8211611368576040517f08c379a000000000000000000000000000000000000000000000000000000000815260040161135f90611c7d565b60405180910390fd5b5f826004546113779190611c9b565b60045460035461138791906116b3565b6113919190611721565b60035461139e9190611778565b90508060035f8282546113b19190611778565b925050819055508260045f8282546113c99190611c9b565b925050819055505f5f9054906101000a900473ffffffffffffffffffffffffffffffffffffffff1673ffffffffffffffffffffffffffffffffffffffff1663a9059cbb33836040518363ffffffff1660e01b815260040161142b929190611751565b6020604051808303815f875af1158015611447573d5f5f3e3d5ffd5b505050506040513d601f19601f8201168201806040525081019061146b91906117e0565b6114aa576040517f08c379a00000000000000000000000000000000000000000000000000000000081526004016114a1906120cb565b60405180910390fd5b505050565b5f819050919050565b6114c1816114af565b82525050565b5f6020820190506114da5f8301846114b8565b92915050565b5f5ffd5b6114ed816114af565b81146114f7575f5ffd5b50565b5f81359050611508816114e4565b92915050565b5f60208284031215611523576115226114e0565b5b5f611530848285016114fa565b91505092915050565b5f5f6040838503121561154f5761154e6114e0565b5b5f61155c858286016114fa565b925050602061156d858286016114fa565b9150509250929050565b5f73ffffffffffffffffffffffffffffffffffffffff82169050919050565b5f6115a082611577565b9050919050565b6115b081611596565b82525050565b5f6020820190506115c95f8301846115a7565b92915050565b5f815190506115dd816114e4565b92915050565b5f602082840312156115f8576115f76114e0565b5b5f611605848285016115cf565b91505092915050565b5f82825260208201905092915050565b7f596f7520646f6e2774206861766520656e6f756768204c5020546f6b656e73005f82015250565b5f611652601f8361160e565b915061165d8261161e565b602082019050919050565b5f6020820190508181035f83015261167f81611646565b9050919050565b7f4e487b71000000000000000000000000000000000000000000000000000000005f52601160045260245ffd5b5f6116bd826114af565b91506116c8836114af565b92508282026116d6816114af565b915082820484148315176116ed576116ec611686565b5b5092915050565b7f4e487b71000000000000000000000000000000000000000000000000000000005f52601260045260245ffd5b5f61172b826114af565b9150611736836114af565b925082611746576117456116f4565b5b828204905092915050565b5f6040820190506117645f8301856115a7565b61177160208301846114b8565b9392505050565b5f611782826114af565b915061178d836114af565b92508282039050818111156117a5576117a4611686565b5b92915050565b5f8115159050919050565b6117bf816117ab565b81146117c9575f5ffd5b50565b5f815190506117da816117b6565b92915050565b5f602082840312156117f5576117f46114e0565b5b5f611802848285016117cc565b91505092915050565b7f4572726f722072656d697474696e67204120746f6b656e7320666f72204c50205f8201527f746f6b656e730000000000000000000000000000000000000000000000000000602082015250565b5f61186560268361160e565b91506118708261180b565b604082019050919050565b5f6020820190508181035f83015261189281611859565b9050919050565b7f4572726f722072656d697474696e67204220746f6b656e7320666f72204c50205f8201527f746f6b656e730000000000000000000000000000000000000000000000000000602082015250565b5f6118f360268361160e565b91506118fe82611899565b604082019050919050565b5f6020820190508181035f830152611920816118e7565b9050919050565b5f8160011c9050919050565b5f5f8291508390505b600185111561197c5780860481111561195857611957611686565b5b60018516156119675780820291505b808102905061197585611927565b945061193c565b94509492505050565b5f826119945760019050611a4f565b816119a1575f9050611a4f565b81600181146119b757600281146119c1576119f0565b6001915050611a4f565b60ff8411156119d3576119d2611686565b5b8360020a9150848211156119ea576119e9611686565b5b50611a4f565b5060208310610133831016604e8410600b8410161715611a255782820a905083811115611a2057611a1f611686565b5b611a4f565b611a328484846001611933565b92509050818404811115611a4957611a48611686565b5b81810290505b9392505050565b5f611a60826114af565b9150611a6b836114af565b9250611a987fffffffffffffffffffffffffffffffffffffffffffffffffffffffffffffffff8484611985565b905092915050565b7f526573657276657320617265207a65726f0000000000000000000000000000005f82015250565b5f611ad460118361160e565b9150611adf82611aa0565b602082019050919050565b5f6020820190508181035f830152611b0181611ac8565b9050919050565b7f596f7520646f6e2774206861766520656e6f75676820746f6b656e20410000005f82015250565b5f611b3c601d8361160e565b9150611b4782611b08565b602082019050919050565b5f6020820190508181035f830152611b6981611b30565b9050919050565b5f606082019050611b835f8301866115a7565b611b9060208301856115a7565b611b9d60408301846114b8565b949350505050565b7f456e7375726520656e6f75676820746f6b656e204120686173206265656e20615f8201527f7070726f76656400000000000000000000000000000000000000000000000000602082015250565b5f611bff60278361160e565b9150611c0a82611ba5565b604082019050919050565b5f6020820190508181035f830152611c2c81611bf3565b9050919050565b7f546f6b656e73206e6f7420656e6f75676820746f20636f7665722066656573005f82015250565b5f611c67601f8361160e565b9150611c7282611c33565b602082019050919050565b5f6020820190508181035f830152611c9481611c5b565b9050919050565b5f611ca5826114af565b9150611cb0836114af565b9250828201905080821115611cc857611cc7611686565b5b92915050565b7f4973737565207768696c652073656e64696e67204220746f6b656e7320696e205f8201527f412d3e4220737761700000000000000000000000000000000000000000000000602082015250565b5f611d2860298361160e565b9150611d3382611cce565b604082019050919050565b5f6020820190508181035f830152611d5581611d1c565b9050919050565b7f596f7520646f6e2774206861766520656e6f756768206120746f6b656e7300005f82015250565b5f611d90601e8361160e565b9150611d9b82611d5c565b602082019050919050565b5f6020820190508181035f830152611dbd81611d84565b9050919050565b7f596f7520646f6e2774206861766520656e6f756768206220746f6b656e7300005f82015250565b5f611df8601e8361160e565b9150611e0382611dc4565b602082019050919050565b5f6020820190508181035f830152611e2581611dec565b9050919050565b5f60ff82169050919050565b611e4181611e2c565b8114611e4b575f5ffd5b50565b5f81519050611e5c81611e38565b92915050565b5f60208284031215611e7757611e766114e0565b5b5f611e8484828501611e4e565b91505092915050565b5f611e97826114af565b9150611ea283611e2c565b9250611ecf7fffffffffffffffffffffffffffffffffffffffffffffffffffffffffffffffff8484611985565b905092915050565b7f5765206e65656420615f616d74203d3d20615f7265732a625f616d742f625f725f8201527f6573207c7c20625f616d74203d3d20625f7265732a615f616d742f615f726573602082015250565b5f611f3160408361160e565b9150611f3c82611ed7565b604082019050919050565b5f6020820190508181035f830152611f5e81611f25565b9050919050565b7f456e7375726520656e6f75676820746f6b656e204220686173206265656e20615f8201527f7070726f76656400000000000000000000000000000000000000000000000000602082015250565b5f611fbf60278361160e565b9150611fca82611f65565b604082019050919050565b5f6020820190508181035f830152611fec81611fb3565b9050919050565b7f596f7520646f6e2774206861766520656e6f75676820746f6b656e20420000005f82015250565b5f612027601d8361160e565b915061203282611ff3565b602082019050919050565b5f6020820190508181035f8301526120548161201b565b9050919050565b7f4973737565207768696c652072656d697474696e67204120746f6b656e7320695f8201527f6e20422d3e412073776170000000000000000000000000000000000000000000602082015250565b5f6120b5602b8361160e565b91506120c08261205b565b604082019050919050565b5f6020820190508181035f8301526120e2816120a9565b905091905056fea2646970667358221220929face2f1ad62e21e4e468b60bd32578070ba0d08fbc2442e10b22dac80967164736f6c634300081f0033",
  "linkReferences": {},
  "deployedLinkReferences": {},
  "immutableReferences": {},
  "inputSourceName": "project/contracts/DEX.sol",
  "buildInfoId": "solc-0_8_31-4290c9fb24d254a69612eddf6ae1efab87f84020"
}