{
  "_format": "hh3-artifact-1",
  "contractName": "LPToken",
  "sourceName": "contracts/LPToken.sol",
  "abi": [
    {
      "inputs": [],
      "stateMutability": "nonpayable",
      "type": "constructor"
    },
    {
      "inputs": [
        {
          "internalType": "address",
          "name": "spender",
          "type": "address"
        },
        {
          "internalType": "uint256",
          "name": "allowance",
          "type": "uint256"
        },
        {
          "internalType": "uint256",
          "name": "needed",
          "type": "uint256"
        }
      ],
      "name": "ERC20InsufficientAllowance",
      "type": "error"
    },
    {
      "inputs": [
        {
          "internalType": "address",
          "name": "sender",
          "type": "address"
        },
        {
          "internalType": "uint256",
          "name": "balance",
          "type": "uint256"
        },
        {
          "internalType": "uint256",
          "name": "needed",
          "type": "uint256"
        }
      ],
      "name": "ERC20InsufficientBalance",
      "type": "error"
    },
    {
      "inputs": [
        {
          "internalType": "address",
          "name": "approver",
          "type": "address"
        }
      ],
      "name": "ERC20InvalidApprover",
      "type": "error"
    },
    {
      "inputs": [
        {
          "internalType": "address",
          "name": "receiver",
          "type": "address"
        }
      ],
      "name": "ERC20InvalidReceiver",
      "type": "error"
    },
    {
      "inputs": [
        {
          "internalType": "address",
          "name": "sender",
          "type": "address"
        }
      ],
      "name": "ERC20InvalidSender",
      "type": "error"
    },
    {
      "inputs": [
        {
          "internalType": "address",
          "name": "spender",
          "type": "address"
        }
      ],
      "name": "ERC20InvalidSpender",
      "type": "error"
    },
    {
      "anonymous": false,
      "inputs": [
        {
          "indexed": true,
          "internalType": "address",
          "name": "owner",
          "type": "address"
        },
        {
          "indexed": true,
          "internalType": "address",
          "name": "spender",
          "type": "address"
        },
        {
          "indexed": false,
          "internalType": "uint256",
          "name": "value",
          "type": "uint256"
        }
      ],
      "name": "Approval",
      "type": "event"
    },
    {
      "anonymous": false,
      "inputs": [
        {
          "indexed": true,
          "internalType": "address",
          "name": "from",
          "type": "address"
        },
        {
          "indexed": true,
          "internalType": "address",
          "name": "to",
          "type": "address"
        },
        {
          "indexed": false,
          "internalType": "uint256",
          "name": "value",
          "type": "uint256"
        }
      ],
      "name": "Transfer",
      "type": "event"
    },
    {
      "inputs": [
        {
          "internalType": "address",
          "name": "owner",
          "type": "address"
        },
        {
          "internalType": "address",
          "name": "spender",
          "type": "address"
        }
      ],
      "name": "allowance",
      "outputs": [
        {
          "internalType": "uint256",
          "name": "",
          "type": "uint256"
        }
      ],
      "stateMutability": "view",
      "type": "function"
    },
    {
      "inputs": [
        {
          "internalType": "address",
          "name": "spender",
          "type": "address"
        },
        {
          "internalType": "uint256",
          "name": "value",
          "type": "uint256"
        }
      ],
      "name": "approve",
      "outputs": [
        {
          "internalType": "bool",
          "name": "",
          "type": "bool"
        }
      ],
      "stateMutability": "nonpayable",
      "type": "function"
    },
    {
      "inputs": [
        {
          "internalType": "address",
          "name": "account",
          "type": "address"
        }
      ],
      "name": "balanceOf",
      "outputs": [
        {
          "internalType": "uint256",
          "name": "",
          "type": "uint256"
        }
      ],
      "stateMutability": "view",
      "type": "function"
    },
    {
      "inputs": [
        {
          "internalType": "address",
          "name": "account",
          "type": "address"
        },
        {
          "internalType": "uint256",
          "name": "tokens",
          "type": "uint256"
        }
      ],
      "name": "burn",
      "outputs": [],
      "stateMutability": "nonpayable",
      "type": "function"
    },
    {
      "inputs": [],
      "name": "decimals",
      "outputs": [
        {
          "internalType": "uint8",
          "name": "",
          "type": "uint8"
        }
      ],
      "stateMutability": "view",
      "type": "function"
    },
    {
      "inputs": [
        {
          "internalType": "address",
          "name": "account",
          "type": "address"
        },
        {
          "internalType": "uint256",
          "name": "tokens",
          "type": "uint256"
        }
      ],
      "name": "mint",
      "outputs": [],
      "stateMutability": "nonpayable",
      "type": "function"
    },
    {
      "inputs": [],
      "name": "name",
      "outputs": [
        {
          "internalType": "string",
          "name": "",
          "type": "string"
        }
      ],
      "stateMutability": "view",
      "type": "function"
    },
    {
      "inputs": [
        {
          "internalType": "address",
          "name": "dex",
          "type": "address"
        }
      ],
      "name": "setDEX",
      "outputs": [],
      "stateMutability": "nonpayable",
      "type": "function"
    },
    {
      "inputs": [],
      "name": "symbol",
      "outputs": [
        {
          "internalType": "string",
          "name": "",
          "type": "string"
        }
      ],
      "stateMutability": "view",
      "type": "function"
    },
    {
      "inputs": [],
      "name": "totalSupply",
      "outputs": [
        {
          "internalType": "uint256",
          "name": "",
          "type": "uint256"
        }
      ],
      "stateMutability": "view",
      "type": "function"
    },
    {
      "inputs": [
        {
          "internalType": "address",
          "name": "to",
          "type": "address"
        },
        {
          "internalType": "uint256",
          "name": "value",
          "type": "uint256"
        }
      ],
      "name": "transfer",
      "outputs": [
        {
          "internalType": "bool",
          "name": "",
          "type": "bool"
        }
      ],
      "stateMutability": "nonpayable",
      "type": "function"
    },
    {
      "inputs": [
        {
          "internalType": "address",
          "name": "from",
          "type": "address"
        },
        {
          "internalType": "address",
          "name": "to",
          "type": "address"
        },
        {
          "internalType": "uint256",
          "name": "value",
          "type": "uint256"
        }
      ],
      "name": "transferFrom",
      "outputs": [
        {
          "internalType": "bool",
          "name": "",
          "type": "bool"
        }
      ],
      "stateMutability": "nonpayable",
      "type": "function"
    }
  ],
  "bytecode": "0x608060405234801561000f575f5ffd5b506040518060400160405280600781526020017f4c50546f6b656e000000000000000000000000000000000000000000000000008152506040518060400160405280600581526020017f4c50544b4e000000000000000000000000000000000000000000000000000000815250816003908161008b9190610360565b50806004908161009b9190610360565b5050505f60055f6101000a81548173ffffffffffffffffffffffffffffffffffffffff021916908373ffffffffffffffffffffffffffffffffffffffff1602179055503360065f6101000a81548173ffffffffffffffffffffffffffffffffffffffff021916908373ffffffffffffffffffffffffffffffffffffffff16021790555061042f565b5f81519050919050565b7f4e487b71000000000000000000000000000000000000000000000000000000005f52604160045260245ffd5b7f4e487b71000000000000000000000000000000000000000000000000000000005f52602260045260245ffd5b5f600282049050600182168061019e57607f821691505b6020821081036101b1576101b061015a565b5b50919050565b5f819050815f5260205f209050919050565b5f6020601f8301049050919050565b5f82821b905092915050565b5f600883026102137fffffffffffffffffffffffffffffffffffffffffffffffffffffffffffffffff826101d8565b61021d86836101d8565b95508019841693508086168417925050509392505050565b5f819050919050565b5f819050919050565b5f61026161025c61025784610235565b61023e565b610235565b9050919050565b5f819050919050565b61027a83610247565b61028e61028682610268565b8484546101e4565b825550505050565b5f5f905090565b6102a5610296565b6102b0818484610271565b505050565b5b818110156102d3576102c85f8261029d565b6001810190506102b6565b5050565b601f821115610318576102e9816101b7565b6102f2846101c9565b81016020851015610301578190505b61031561030d856101c9565b8301826102b5565b50505b505050565b5f82821c905092915050565b5f6103385f198460080261031d565b1980831691505092915050565b5f6103508383610329565b9150826002028217905092915050565b61036982610123565b67ffffffffffffffff8111156103825761038161012d565b5b61038c8254610187565b6103978282856102d7565b5f60209050601f8311600181146103c8575f84156103b6578287015190505b6103c08582610345565b865550610427565b601f1984166103d6866101b7565b5f5b828110156103fd578489015182556001820191506020850194506020810190506103d8565b8683101561041a5784890151610416601f891682610329565b8355505b6001600288020188555050505b505050505050565b6114028061043c5f395ff3fe608060405234801561000f575f5ffd5b50600436106100b2575f3560e01c806370a082311161006f57806370a082311461018c5780637b66a723146101bc57806395d89b41146101d85780639dc29fac146101f6578063a9059cbb14610212578063dd62ed3e14610242576100b2565b806306fdde03146100b6578063095ea7b3146100d457806318160ddd1461010457806323b872dd14610122578063313ce5671461015257806340c10f1914610170575b5f5ffd5b6100be610272565b6040516100cb9190610e69565b60405180910390f35b6100ee60048036038101906100e99190610f1a565b610302565b6040516100fb9190610f72565b60405180910390f35b61010c610324565b6040516101199190610f9a565b60405180910390f35b61013c60048036038101906101379190610fb3565b61032d565b6040516101499190610f72565b60405180910390f35b61015a61035b565b604051610167919061101e565b60405180910390f35b61018a60048036038101906101859190610f1a565b610363565b005b6101a660048036038101906101a19190611037565b610400565b6040516101b39190610f9a565b60405180910390f35b6101d660048036038101906101d19190611037565b610445565b005b6101e06105a6565b6040516101ed9190610e69565b60405180910390f35b610210600480360381019061020b9190610f1a565b610636565b005b61022c60048036038101906102279190610f1a565b6106d3565b6040516102399190610f72565b60405180910390f35b61025c60048036038101906102579190611062565b6106f5565b6040516102699190610f9a565b60405180910390f35b606060038054610281906110cd565b80601f01602080910402602001604051908101604052809291908181526020018280546102ad906110cd565b80156102f85780601f106102cf576101008083540402835291602001916102f8565b820191905f5260205f20905b8154815290600101906020018083116102db57829003601f168201915b5050505050905090565b5f5f61030c610777565b905061031981858561077e565b600191505092915050565b5f600254905090565b5f5f610337610777565b9050610344858285610790565b61034f858585610823565b60019150509392505050565b5f6012905090565b60055f9054906101000a900473ffffffffffffffffffffffffffffffffffffffff1673ffffffffffffffffffffffffffffffffffffffff163373ffffffffffffffffffffffffffffffffffffffff16146103f2576040517f08c379a00000000000000000000000000000000000000000000000000000000081526004016103e99061116d565b60405180910390fd5b6103fc8282610913565b5050565b5f5f5f8373ffffffffffffffffffffffffffffffffffffffff1673ffffffffffffffffffffffffffffffffffffffff1681526020019081526020015f20549050919050565b60065f9054906101000a900473ffffffffffffffffffffffffffffffffffffffff1673ffffffffffffffffffffffffffffffffffffffff163373ffffffffffffffffffffffffffffffffffffffff16146104d4576040517f08c379a00000000000000000000000000000000000000000000000000000000081526004016104cb906111fb565b60405180910390fd5b5f73ffffffffffffffffffffffffffffffffffffffff1660055f9054906101000a900473ffffffffffffffffffffffffffffffffffffffff1673ffffffffffffffffffffffffffffffffffffffff1614610563576040517f08c379a000000000000000000000000000000000000000000000000000000000815260040161055a90611263565b60405180910390fd5b8060055f6101000a81548173ffffffffffffffffffffffffffffffffffffffff021916908373ffffffffffffffffffffffffffffffffffffffff16021790555050565b6060600480546105b5906110cd565b80601f01602080910402602001604051908101604052809291908181526020018280546105e1906110cd565b801561062c5780601f106106035761010080835404028352916020019161062c565b820191905f5260205f20905b81548152906001019060200180831161060f57829003601f168201915b5050505050905090565b60055f9054906101000a900473ffffffffffffffffffffffffffffffffffffffff1673ffffffffffffffffffffffffffffffffffffffff163373ffffffffffffffffffffffffffffffffffffffff16146106c5576040517f08c379a00000000000000000000000000000000000000000000000000000000081526004016106bc906112f1565b60405180910390fd5b6106cf8282610992565b5050565b5f5f6106dd610777565b90506106ea818585610823565b600191505092915050565b5f60015f8473ffffffffffffffffffffffffffffffffffffffff1673ffffffffffffffffffffffffffffffffffffffff1681526020019081526020015f205f8373ffffffffffffffffffffffffffffffffffffffff1673ffffffffffffffffffffffffffffffffffffffff1681526020019081526020015f2054905092915050565b5f33905090565b61078b8383836001610a11565b505050565b5f61079b84846106f5565b90507fffffffffffffffffffffffffffffffffffffffffffffffffffffffffffffffff81101561081d578181101561080e578281836040517ffb8f41b20000000000000000000000000000000000000000000000000000000081526004016108059392919061131e565b60405180910390fd5b61081c84848484035f610a11565b5b50505050565b5f73ffffffffffffffffffffffffffffffffffffffff168373ffffffffffffffffffffffffffffffffffffffff1603610893575f6040517f96c6fd1e00000000000000000000000000000000000000000000000000000000815260040161088a9190611353565b60405180910390fd5b5f73ffffffffffffffffffffffffffffffffffffffff168273ffffffffffffffffffffffffffffffffffffffff1603610903575f6040517fec442f050000000000000000000000000000000000000000000000000000000081526004016108fa9190611353565b60405180910390fd5b61090e838383610be0565b505050565b5f73ffffffffffffffffffffffffffffffffffffffff168273ffffffffffffffffffffffffffffffffffffffff1603610983575f6040517fec442f0500000000000000000000000000000000000000000000000000000000815260040161097a9190611353565b60405180910390fd5b61098e5f8383610be0565b5050565b5f73ffffffffffffffffffffffffffffffffffffffff168273ffffffffffffffffffffffffffffffffffffffff1603610a02575f6040517f96c6fd1e0000000000000000000000000000000000000000000000000000000081526004016109f99190611353565b60405180910390fd5b610a0d825f83610be0565b5050565b5f73ffffffffffffffffffffffffffffffffffffffff168473ffffffffffffffffffffffffffffffffffffffff1603610a81575f6040517fe602df05000000000000000000000000000000000000000000000000000000008152600401610a789190611353565b60405180910390fd5b5f73ffffffffffffffffffffffffffffffffffffffff168373ffffffffffffffffffffffffffffffffffffffff1603610af1575f6040517f94280d62000000000000000000000000000000000000000000000000000000008152600401610ae89190611353565b60405180910390fd5b8160015f8673ffffffffffffffffffffffffffffffffffffffff1673ffffffffffffffffffffffffffffffffffffffff1681526020019081526020015f205f8573ffffffffffffffffffffffffffffffffffffffff1673ffffffffffffffffffffffffffffffffffffffff1681526020019081526020015f20819055508015610bda578273ffffffffffffffffffffffffffffffffffffffff168473ffffffffffffffffffffffffffffffffffffffff167f8c5be1e5ebec7d5bd14f71427d1e84f3dd0314c0f7b2291e5b200ac8c7c3b92584604051610bd19190610f9a565b60405180910390a35b50505050565b5f73ffffffffffffffffffffffffffffffffffffffff168373ffffffffffffffffffffffffffffffffffffffff1603610c30578060025f828254610c249190611399565b92505081905550610cfe565b5f5f5f8573ffffffffffffffffffffffffffffffffffffffff1673ffffffffffffffffffffffffffffffffffffffff1681526020019081526020015f2054905081811015610cb9578381836040517fe450d38c000000000000000000000000000000000000000000000000000000008152600401610cb09392919061131e565b60405180910390fd5b8181035f5f8673ffffffffffffffffffffffffffffffffffffffff1673ffffffffffffffffffffffffffffffffffffffff1681526020019081526020015f2081905550505b5f73ffffffffffffffffffffffffffffffffffffffff168273ffffffffffffffffffffffffffffffffffffffff1603610d45578060025f8282540392505081905550610d8f565b805f5f8473ffffffffffffffffffffffffffffffffffffffff1673ffffffffffffffffffffffffffffffffffffffff1681526020019081526020015f205f82825401925050819055505b8173ffffffffffffffffffffffffffffffffffffffff168373ffffffffffffffffffffffffffffffffffffffff167fddf252ad1be2c89b69c2b068fc378daa952ba7f163c4a11628f55a4df523b3ef83604051610dec9190610f9a565b60405180910390a3505050565b5f81519050919050565b5f82825260208201905092915050565b8281835e5f83830152505050565b5f601f19601f8301169050919050565b5f610e3b82610df9565b610e458185610e03565b9350610e55818560208601610e13565b610e5e81610e21565b840191505092915050565b5f6020820190508181035f830152610e818184610e31565b905092915050565b5f5ffd5b5f73ffffffffffffffffffffffffffffffffffffffff82169050919050565b5f610eb682610e8d565b9050919050565b610ec681610eac565b8114610ed0575f5ffd5b50565b5f81359050610ee181610ebd565b92915050565b5f819050919050565b610ef981610ee7565b8114610f03575f5ffd5b50565b5f81359050610f1481610ef0565b92915050565b5f5f60408385031215610f3057610f2f610e89565b5b5f610f3d85828601610ed3565b9250506020610f4e85828601610f06565b9150509250929050565b5f8115159050919050565b610f6c81610f58565b82525050565b5f602082019050610f855f830184610f63565b92915050565b610f9481610ee7565b82525050565b5f602082019050610fad5f830184610f8b565b92915050565b5f5f5f60608486031215610fca57610fc9610e89565b5b5f610fd786828701610ed3565b9350506020610fe886828701610ed3565b9250506040610ff986828701610f06565b9150509250925092565b5f60ff82169050919050565b61101881611003565b82525050565b5f6020820190506110315f83018461100f565b92915050565b5f6020828403121561104c5761104b610e89565b5b5f61105984828501610ed3565b91505092915050565b5f5f6040838503121561107857611077610e89565b5b5f61108585828601610ed3565b925050602061109685828601610ed3565b9150509250929050565b7f4e487b71000000000000000000000000000000000000000000000000000000005f52602260045260245ffd5b5f60028204905060018216806110e457607f821691505b6020821081036110f7576110f66110a0565b5b50919050565b7f4c5020546f6b656e732063616e6e6f74206265206d696e746564206f757473695f8201527f6465206f66204445580000000000000000000000000000000000000000000000602082015250565b5f611157602983610e03565b9150611162826110fd565b604082019050919050565b5f6020820190508181035f8301526111848161114b565b9050919050565b7f596f7520617265206e6f74206f776e65722c20796f752063616e6e6f742073655f8201527f7420746865204445580000000000000000000000000000000000000000000000602082015250565b5f6111e5602983610e03565b91506111f08261118b565b604082019050919050565b5f6020820190508181035f830152611212816111d9565b9050919050565b7f4445582068617320616c7265616479206265656e207365742e000000000000005f82015250565b5f61124d601983610e03565b915061125882611219565b602082019050919050565b5f6020820190508181035f83015261127a81611241565b9050919050565b7f4c5020546f6b656e732063616e6e6f74206265206275726e74206f75747369645f8201527f65206f6620444558000000000000000000000000000000000000000000000000602082015250565b5f6112db602883610e03565b91506112e682611281565b604082019050919050565b5f6020820190508181035f830152611308816112cf565b9050919050565b61131881610eac565b82525050565b5f6060820190506113315f83018661130f565b61133e6020830185610f8b565b61134b6040830184610f8b565b949350505050565b5f6020820190506113665f83018461130f565b92915050565b7f4e487b71000000000000000000000000000000000000000000000000000000005f52601160045260245ffd5b5f6113a382610ee7565b91506113ae83610ee7565b92508282019050808211156113c6576113c561136c565b5b9291505056fea2646970667358221220da65d15468ce2d0306fac029706677122dece582daf1aa1a8b540a2b0d1a63ed64736f6c634300081f0033",
  "linkReferences": {},
  "deployedLinkReferences": {},
  "immutableReferences": {},
  "inputSourceName": "project/contracts/LPToken.sol",
  "buildInfoId": "solc-0_8_31-4290c9fb24d254a69612eddf6ae1efab87f84020"
}